{
  "_format": "hh-sol-artifact-1",
  "contractName": "PalaemonNFT",
  "sourceName": "contracts/PalaemonNFT.sol",
  "abi": [
    {
      "inputs": [
        {
          "internalType": "string",
          "name": "baseURI",
          "type": "string"
        }
      ],
      "stateMutability": "nonpayable",
      "type": "constructor"
    },
    {
      "anonymous": false,
      "inputs": [
        {
          "indexed": true,
          "internalType": "address",
          "name": "owner",
          "type": "address"
        },
        {
          "indexed": true,
          "internalType": "address",
          "name": "approved",
          "type": "address"
        },
        {
          "indexed": true,
          "internalType": "uint256",
          "name": "tokenId",
          "type": "uint256"
        }
      ],
      "name": "Approval",
      "type": "event"
    },
    {
      "anonymous": false,
      "inputs": [
        {
          "indexed": true,
          "internalType": "address",
          "name": "owner",
          "type": "address"
        },
        {
          "indexed": true,
          "internalType": "address",
          "name": "operator",
          "type": "address"
        },
        {
          "indexed": false,
          "internalType": "bool",
          "name": "approved",
          "type": "bool"
        }
      ],
      "name": "ApprovalForAll",
      "type": "event"
    },
    {
      "anonymous": false,
      "inputs": [
        {
          "indexed": false,
          "internalType": "uint256",
          "name": "_fromTokenId",
          "type": "uint256"
        },
        {
          "indexed": false,
          "internalType": "uint256",
          "name": "_toTokenId",
          "type": "uint256"
        }
      ],
      "name": "BatchMetadataUpdate",
      "type": "event"
    },
    {
      "anonymous": false,
      "inputs": [
        {
          "indexed": false,
          "internalType": "uint256",
          "name": "_tokenId",
          "type": "uint256"
        }
      ],
      "name": "MetadataUpdate",
      "type": "event"
    },
    {
      "anonymous": false,
      "inputs": [
        {
          "indexed": true,
          "internalType": "address",
          "name": "previousOwner",
          "type": "address"
        },
        {
          "indexed": true,
          "internalType": "address",
          "name": "newOwner",
          "type": "address"
        }
      ],
      "name": "OwnershipTransferred",
      "type": "event"
    },
    {
      "anonymous": false,
      "inputs": [
        {
          "indexed": true,
          "internalType": "address",
          "name": "from",
          "type": "address"
        },
        {
          "indexed": true,
          "internalType": "address",
          "name": "to",
          "type": "address"
        },
        {
          "indexed": true,
          "internalType": "uint256",
          "name": "tokenId",
          "type": "uint256"
        }
      ],
      "name": "Transfer",
      "type": "event"
    },
    {
      "inputs": [],
      "name": "MAX_SUPPLY",
      "outputs": [
        {
          "internalType": "uint256",
          "name": "",
          "type": "uint256"
        }
      ],
      "stateMutability": "view",
      "type": "function"
    },
    {
      "inputs": [
        {
          "internalType": "address",
          "name": "to",
          "type": "address"
        },
        {
          "internalType": "uint256",
          "name": "tokenId",
          "type": "uint256"
        }
      ],
      "name": "approve",
      "outputs": [],
      "stateMutability": "nonpayable",
      "type": "function"
    },
    {
      "inputs": [
        {
          "internalType": "address",
          "name": "owner",
          "type": "address"
        }
      ],
      "name": "balanceOf",
      "outputs": [
        {
          "internalType": "uint256",
          "name": "",
          "type": "uint256"
        }
      ],
      "stateMutability": "view",
      "type": "function"
    },
    {
      "inputs": [
        {
          "internalType": "uint256",
          "name": "tokenId",
          "type": "uint256"
        }
      ],
      "name": "getApproved",
      "outputs": [
        {
          "internalType": "address",
          "name": "",
          "type": "address"
        }
      ],
      "stateMutability": "view",
      "type": "function"
    },
    {
      "inputs": [
        {
          "internalType": "address",
          "name": "owner",
          "type": "address"
        },
        {
          "internalType": "address",
          "name": "operator",
          "type": "address"
        }
      ],
      "name": "isApprovedForAll",
      "outputs": [
        {
          "internalType": "bool",
          "name": "",
          "type": "bool"
        }
      ],
      "stateMutability": "view",
      "type": "function"
    },
    {
      "inputs": [
        {
          "internalType": "address",
          "name": "to",
          "type": "address"
        },
        {
          "internalType": "string",
          "name": "uri",
          "type": "string"
        }
      ],
      "name": "mint",
      "outputs": [],
      "stateMutability": "nonpayable",
      "type": "function"
    },
    {
      "inputs": [],
      "name": "mintPrice",
      "outputs": [
        {
          "internalType": "uint256",
          "name": "",
          "type": "uint256"
        }
      ],
      "stateMutability": "view",
      "type": "function"
    },
    {
      "inputs": [],
      "name": "name",
      "outputs": [
        {
          "internalType": "string",
          "name": "",
          "type": "string"
        }
      ],
      "stateMutability": "view",
      "type": "function"
    },
    {
      "inputs": [],
      "name": "owner",
      "outputs": [
        {
          "internalType": "address",
          "name": "",
          "type": "address"
        }
      ],
      "stateMutability": "view",
      "type": "function"
    },
    {
      "inputs": [
        {
          "internalType": "uint256",
          "name": "tokenId",
          "type": "uint256"
        }
      ],
      "name": "ownerOf",
      "outputs": [
        {
          "internalType": "address",
          "name": "",
          "type": "address"
        }
      ],
      "stateMutability": "view",
      "type": "function"
    },
    {
      "inputs": [],
      "name": "publicMint",
      "outputs": [],
      "stateMutability": "payable",
      "type": "function"
    },
    {
      "inputs": [],
      "name": "renounceOwnership",
      "outputs": [],
      "stateMutability": "nonpayable",
      "type": "function"
    },
    {
      "inputs": [
        {
          "internalType": "address",
          "name": "from",
          "type": "address"
        },
        {
          "internalType": "address",
          "name": "to",
          "type": "address"
        },
        {
          "internalType": "uint256",
          "name": "tokenId",
          "type": "uint256"
        }
      ],
      "name": "safeTransferFrom",
      "outputs": [],
      "stateMutability": "nonpayable",
      "type": "function"
    },
    {
      "inputs": [
        {
          "internalType": "address",
          "name": "from",
          "type": "address"
        },
        {
          "internalType": "address",
          "name": "to",
          "type": "address"
        },
        {
          "internalType": "uint256",
          "name": "tokenId",
          "type": "uint256"
        },
        {
          "internalType": "bytes",
          "name": "data",
          "type": "bytes"
        }
      ],
      "name": "safeTransferFrom",
      "outputs": [],
      "stateMutability": "nonpayable",
      "type": "function"
    },
    {
      "inputs": [
        {
          "internalType": "address",
          "name": "operator",
          "type": "address"
        },
        {
          "internalType": "bool",
          "name": "approved",
          "type": "bool"
        }
      ],
      "name": "setApprovalForAll",
      "outputs": [],
      "stateMutability": "nonpayable",
      "type": "function"
    },
    {
      "inputs": [
        {
          "internalType": "string",
          "name": "baseURI",
          "type": "string"
        }
      ],
      "name": "setBaseURI",
      "outputs": [],
      "stateMutability": "nonpayable",
      "type": "function"
    },
    {
      "inputs": [
        {
          "internalType": "uint256",
          "name": "_price",
          "type": "uint256"
        }
      ],
      "name": "setMintPrice",
      "outputs": [],
      "stateMutability": "nonpayable",
      "type": "function"
    },
    {
      "inputs": [
        {
          "internalType": "bytes4",
          "name": "interfaceId",
          "type": "bytes4"
        }
      ],
      "name": "supportsInterface",
      "outputs": [
        {
          "internalType": "bool",
          "name": "",
          "type": "bool"
        }
      ],
      "stateMutability": "view",
      "type": "function"
    },
    {
      "inputs": [],
      "name": "symbol",
      "outputs": [
        {
          "internalType": "string",
          "name": "",
          "type": "string"
        }
      ],
      "stateMutability": "view",
      "type": "function"
    },
    {
      "inputs": [
        {
          "internalType": "uint256",
          "name": "tokenId",
          "type": "uint256"
        }
      ],
      "name": "tokenURI",
      "outputs": [
        {
          "internalType": "string",
          "name": "",
          "type": "string"
        }
      ],
      "stateMutability": "view",
      "type": "function"
    },
    {
      "inputs": [],
      "name": "totalSupply",
      "outputs": [
        {
          "internalType": "uint256",
          "name": "",
          "type": "uint256"
        }
      ],
      "stateMutability": "view",
      "type": "function"
    },
    {
      "inputs": [
        {
          "internalType": "address",
          "name": "from",
          "type": "address"
        },
        {
          "internalType": "address",
          "name": "to",
          "type": "address"
        },
        {
          "internalType": "uint256",
          "name": "tokenId",
          "type": "uint256"
        }
      ],
      "name": "transferFrom",
      "outputs": [],
      "stateMutability": "nonpayable",
      "type": "function"
    },
    {
      "inputs": [
        {
          "internalType": "address",
          "name": "newOwner",
          "type": "address"
        }
      ],
      "name": "transferOwnership",
      "outputs": [],
      "stateMutability": "nonpayable",
      "type": "function"
    },
    {
      "inputs": [],
      "name": "withdraw",
      "outputs": [],
      "stateMutability": "nonpayable",
      "type": "function"
    }
  ],
  "bytecode": "0x6080604052662386f26fc100006009553480156200001c57600080fd5b5060405162003b2338038062003b2383398181016040528101906200004291906200036e565b6040518060400160405280600c81526020017f50616c61656d6f6e204e465400000000000000000000000000000000000000008152506040518060400160405280600381526020017f50414c00000000000000000000000000000000000000000000000000000000008152508160009081620000bf91906200060a565b508060019081620000d191906200060a565b505050620000f4620000e86200010d60201b60201c565b6200011560201b60201c565b80600a90816200010591906200060a565b5050620006f1565b600033905090565b6000600760009054906101000a900473ffffffffffffffffffffffffffffffffffffffff16905081600760006101000a81548173ffffffffffffffffffffffffffffffffffffffff021916908373ffffffffffffffffffffffffffffffffffffffff1602179055508173ffffffffffffffffffffffffffffffffffffffff168173ffffffffffffffffffffffffffffffffffffffff167f8be0079c531659141344cd1fd0a4f28419497f9722a3daafe3b4186f6b6457e060405160405180910390a35050565b6000604051905090565b600080fd5b600080fd5b600080fd5b600080fd5b6000601f19601f8301169050919050565b7f4e487b7100000000000000000000000000000000000000000000000000000000600052604160045260246000fd5b6200024482620001f9565b810181811067ffffffffffffffff821117156200026657620002656200020a565b5b80604052505050565b60006200027b620001db565b905062000289828262000239565b919050565b600067ffffffffffffffff821115620002ac57620002ab6200020a565b5b620002b782620001f9565b9050602081019050919050565b60005b83811015620002e4578082015181840152602081019050620002c7565b60008484015250505050565b60006200030762000301846200028e565b6200026f565b905082815260208101848484011115620003265762000325620001f4565b5b62000333848285620002c4565b509392505050565b600082601f830112620003535762000352620001ef565b5b815162000365848260208601620002f0565b91505092915050565b600060208284031215620003875762000386620001e5565b5b600082015167ffffffffffffffff811115620003a857620003a7620001ea565b5b620003b6848285016200033b565b91505092915050565b600081519050919050565b7f4e487b7100000000000000000000000000000000000000000000000000000000600052602260045260246000fd5b600060028204905060018216806200041257607f821691505b602082108103620004285762000427620003ca565b5b50919050565b60008190508160005260206000209050919050565b60006020601f8301049050919050565b600082821b905092915050565b600060088302620004927fffffffffffffffffffffffffffffffffffffffffffffffffffffffffffffffff8262000453565b6200049e868362000453565b95508019841693508086168417925050509392505050565b6000819050919050565b6000819050919050565b6000620004eb620004e5620004df84620004b6565b620004c0565b620004b6565b9050919050565b6000819050919050565b6200050783620004ca565b6200051f6200051682620004f2565b84845462000460565b825550505050565b600090565b6200053662000527565b62000543818484620004fc565b505050565b5b818110156200056b576200055f6000826200052c565b60018101905062000549565b5050565b601f821115620005ba5762000584816200042e565b6200058f8462000443565b810160208510156200059f578190505b620005b7620005ae8562000443565b83018262000548565b50505b505050565b600082821c905092915050565b6000620005df60001984600802620005bf565b1980831691505092915050565b6000620005fa8383620005cc565b9150826002028217905092915050565b6200061582620003bf565b67ffffffffffffffff8111156200063157620006306200020a565b5b6200063d8254620003f9565b6200064a8282856200056f565b600060209050601f8311600181146200068257600084156200066d578287015190505b620006798582620005ec565b865550620006e9565b601f19841662000692866200042e565b60005b82811015620006bc5784890151825560018201915060208501945060208101905062000695565b86831015620006dc5784890151620006d8601f891682620005cc565b8355505b6001600288020188555050505b505050505050565b61342280620007016000396000f3fe60806040526004361061014b5760003560e01c80636817c76c116100b6578063b88d4fde1161006f578063b88d4fde1461044b578063c87b56dd14610474578063d0def521146104b1578063e985e9c5146104da578063f2fde38b14610517578063f4a0a528146105405761014b565b80636817c76c1461034d57806370a0823114610378578063715018a6146103b55780638da5cb5b146103cc57806395d89b41146103f7578063a22cb465146104225761014b565b806326092b831161010857806326092b831461027257806332cb6b0c1461027c5780633ccfd60b146102a757806342842e0e146102be57806355f804b3146102e75780636352211e146103105761014b565b806301ffc9a71461015057806306fdde031461018d578063081812fc146101b8578063095ea7b3146101f557806318160ddd1461021e57806323b872dd14610249575b600080fd5b34801561015c57600080fd5b50610177600480360381019061017291906120f2565b610569565b604051610184919061213a565b60405180910390f35b34801561019957600080fd5b506101a261057b565b6040516101af91906121e5565b60405180910390f35b3480156101c457600080fd5b506101df60048036038101906101da919061223d565b61060d565b6040516101ec91906122ab565b60405180910390f35b34801561020157600080fd5b5061021c600480360381019061021791906122f2565b610653565b005b34801561022a57600080fd5b5061023361076a565b6040516102409190612341565b60405180910390f35b34801561025557600080fd5b50610270600480360381019061026b919061235c565b61077b565b005b61027a6107db565b005b34801561028857600080fd5b50610291610891565b60405161029e9190612341565b60405180910390f35b3480156102b357600080fd5b506102bc610896565b005b3480156102ca57600080fd5b506102e560048036038101906102e0919061235c565b6108ee565b005b3480156102f357600080fd5b5061030e600480360381019061030991906124e4565b61090e565b005b34801561031c57600080fd5b506103376004803603810190610332919061223d565b610929565b60405161034491906122ab565b60405180910390f35b34801561035957600080fd5b506103626109af565b60405161036f9190612341565b60405180910390f35b34801561038457600080fd5b5061039f600480360381019061039a919061252d565b6109b5565b6040516103ac9190612341565b60405180910390f35b3480156103c157600080fd5b506103ca610a6c565b005b3480156103d857600080fd5b506103e1610a80565b6040516103ee91906122ab565b60405180910390f35b34801561040357600080fd5b5061040c610aaa565b60405161041991906121e5565b60405180910390f35b34801561042e57600080fd5b5061044960048036038101906104449190612586565b610b3c565b005b34801561045757600080fd5b50610472600480360381019061046d9190612667565b610b52565b005b34801561048057600080fd5b5061049b6004803603810190610496919061223d565b610bb4565b6040516104a891906121e5565b60405180910390f35b3480156104bd57600080fd5b506104d860048036038101906104d391906126ea565b610bc6565b005b3480156104e657600080fd5b5061050160048036038101906104fc9190612746565b610c4b565b60405161050e919061213a565b60405180910390f35b34801561052357600080fd5b5061053e6004803603810190610539919061252d565b610cdf565b005b34801561054c57600080fd5b506105676004803603810190610562919061223d565b610d62565b005b600061057482610d74565b9050919050565b60606000805461058a906127b5565b80601f01602080910402602001604051908101604052809291908181526020018280546105b6906127b5565b80156106035780601f106105d857610100808354040283529160200191610603565b820191906000526020600020905b8154815290600101906020018083116105e657829003601f168201915b5050505050905090565b600061061882610dd5565b6004600083815260200190815260200160002060009054906101000a900473ffffffffffffffffffffffffffffffffffffffff169050919050565b600061065e82610929565b90508073ffffffffffffffffffffffffffffffffffffffff168373ffffffffffffffffffffffffffffffffffffffff16036106ce576040517f08c379a00000000000000000000000000000000000000000000000000000000081526004016106c590612858565b60405180910390fd5b8073ffffffffffffffffffffffffffffffffffffffff166106ed610e20565b73ffffffffffffffffffffffffffffffffffffffff16148061071c575061071b81610716610e20565b610c4b565b5b61075b576040517f08c379a0000000000000000000000000000000000000000000000000000000008152600401610752906128ea565b60405180910390fd5b6107658383610e28565b505050565b60006107766008610ee1565b905090565b61078c610786610e20565b82610eef565b6107cb576040517f08c379a00000000000000000000000000000000000000000000000000000000081526004016107c29061297c565b60405180910390fd5b6107d6838383610f84565b505050565b60206107e76008610ee1565b10610827576040517f08c379a000000000000000000000000000000000000000000000000000000000815260040161081e906129e8565b60405180910390fd5b60095434101561086c576040517f08c379a000000000000000000000000000000000000000000000000000000000815260040161086390612a54565b60405180910390fd5b60006108786008610ee1565b9050610884600861127d565b61088e3382611293565b50565b602081565b61089e6112b1565b6108a6610a80565b73ffffffffffffffffffffffffffffffffffffffff166108fc479081150290604051600060405180830381858888f193505050501580156108eb573d6000803e3d6000fd5b50565b61090983838360405180602001604052806000815250610b52565b505050565b6109166112b1565b80600a90816109259190612c20565b5050565b6000806109358361132f565b9050600073ffffffffffffffffffffffffffffffffffffffff168173ffffffffffffffffffffffffffffffffffffffff16036109a6576040517f08c379a000000000000000000000000000000000000000000000000000000000815260040161099d90612d3e565b60405180910390fd5b80915050919050565b60095481565b60008073ffffffffffffffffffffffffffffffffffffffff168273ffffffffffffffffffffffffffffffffffffffff1603610a25576040517f08c379a0000000000000000000000000000000000000000000000000000000008152600401610a1c90612dd0565b60405180910390fd5b600360008373ffffffffffffffffffffffffffffffffffffffff1673ffffffffffffffffffffffffffffffffffffffff168152602001908152602001600020549050919050565b610a746112b1565b610a7e600061136c565b565b6000600760009054906101000a900473ffffffffffffffffffffffffffffffffffffffff16905090565b606060018054610ab9906127b5565b80601f0160208091040260200160405190810160405280929190818152602001828054610ae5906127b5565b8015610b325780601f10610b0757610100808354040283529160200191610b32565b820191906000526020600020905b815481529060010190602001808311610b1557829003601f168201915b5050505050905090565b610b4e610b47610e20565b8383611432565b5050565b610b63610b5d610e20565b83610eef565b610ba2576040517f08c379a0000000000000000000000000000000000000000000000000000000008152600401610b999061297c565b60405180910390fd5b610bae8484848461159e565b50505050565b6060610bbf826115fa565b9050919050565b610bce6112b1565b6020610bda6008610ee1565b10610c1a576040517f08c379a0000000000000000000000000000000000000000000000000000000008152600401610c11906129e8565b60405180910390fd5b6000610c266008610ee1565b9050610c32600861127d565b610c3c8382611293565b610c46818361170c565b505050565b6000600560008473ffffffffffffffffffffffffffffffffffffffff1673ffffffffffffffffffffffffffffffffffffffff16815260200190815260200160002060008373ffffffffffffffffffffffffffffffffffffffff1673ffffffffffffffffffffffffffffffffffffffff16815260200190815260200160002060009054906101000a900460ff16905092915050565b610ce76112b1565b600073ffffffffffffffffffffffffffffffffffffffff168173ffffffffffffffffffffffffffffffffffffffff1603610d56576040517f08c379a0000000000000000000000000000000000000000000000000000000008152600401610d4d90612e62565b60405180910390fd5b610d5f8161136c565b50565b610d6a6112b1565b8060098190555050565b6000634906490660e01b7bffffffffffffffffffffffffffffffffffffffffffffffffffffffff1916827bffffffffffffffffffffffffffffffffffffffffffffffffffffffff19161480610dce5750610dcd826117b0565b5b9050919050565b610dde81611892565b610e1d576040517f08c379a0000000000000000000000000000000000000000000000000000000008152600401610e1490612d3e565b60405180910390fd5b50565b600033905090565b816004600083815260200190815260200160002060006101000a81548173ffffffffffffffffffffffffffffffffffffffff021916908373ffffffffffffffffffffffffffffffffffffffff160217905550808273ffffffffffffffffffffffffffffffffffffffff16610e9b83610929565b73ffffffffffffffffffffffffffffffffffffffff167f8c5be1e5ebec7d5bd14f71427d1e84f3dd0314c0f7b2291e5b200ac8c7c3b92560405160405180910390a45050565b600081600001549050919050565b600080610efb83610929565b90508073ffffffffffffffffffffffffffffffffffffffff168473ffffffffffffffffffffffffffffffffffffffff161480610f3d5750610f3c8185610c4b565b5b80610f7b57508373ffffffffffffffffffffffffffffffffffffffff16610f638461060d565b73ffffffffffffffffffffffffffffffffffffffff16145b91505092915050565b8273ffffffffffffffffffffffffffffffffffffffff16610fa482610929565b73ffffffffffffffffffffffffffffffffffffffff1614610ffa576040517f08c379a0000000000000000000000000000000000000000000000000000000008152600401610ff190612ef4565b60405180910390fd5b600073ffffffffffffffffffffffffffffffffffffffff168273ffffffffffffffffffffffffffffffffffffffff1603611069576040517f08c379a000000000000000000000000000000000000000000000000000000000815260040161106090612f86565b60405180910390fd5b61107683838360016118d3565b8273ffffffffffffffffffffffffffffffffffffffff1661109682610929565b73ffffffffffffffffffffffffffffffffffffffff16146110ec576040517f08c379a00000000000000000000000000000000000000000000000000000000081526004016110e390612ef4565b60405180910390fd5b6004600082815260200190815260200160002060006101000a81549073ffffffffffffffffffffffffffffffffffffffff02191690556001600360008573ffffffffffffffffffffffffffffffffffffffff1673ffffffffffffffffffffffffffffffffffffffff168152602001908152602001600020600082825403925050819055506001600360008473ffffffffffffffffffffffffffffffffffffffff1673ffffffffffffffffffffffffffffffffffffffff16815260200190815260200160002060008282540192505081905550816002600083815260200190815260200160002060006101000a81548173ffffffffffffffffffffffffffffffffffffffff021916908373ffffffffffffffffffffffffffffffffffffffff160217905550808273ffffffffffffffffffffffffffffffffffffffff168473ffffffffffffffffffffffffffffffffffffffff167fddf252ad1be2c89b69c2b068fc378daa952ba7f163c4a11628f55a4df523b3ef60405160405180910390a461127883838360016118d9565b505050565b6001816000016000828254019250508190555050565b6112ad8282604051806020016040528060008152506118df565b5050565b6112b9610e20565b73ffffffffffffffffffffffffffffffffffffffff166112d7610a80565b73ffffffffffffffffffffffffffffffffffffffff161461132d576040517f08c379a000000000000000000000000000000000000000000000000000000000815260040161132490612ff2565b60405180910390fd5b565b60006002600083815260200190815260200160002060009054906101000a900473ffffffffffffffffffffffffffffffffffffffff169050919050565b6000600760009054906101000a900473ffffffffffffffffffffffffffffffffffffffff16905081600760006101000a81548173ffffffffffffffffffffffffffffffffffffffff021916908373ffffffffffffffffffffffffffffffffffffffff1602179055508173ffffffffffffffffffffffffffffffffffffffff168173ffffffffffffffffffffffffffffffffffffffff167f8be0079c531659141344cd1fd0a4f28419497f9722a3daafe3b4186f6b6457e060405160405180910390a35050565b8173ffffffffffffffffffffffffffffffffffffffff168373ffffffffffffffffffffffffffffffffffffffff16036114a0576040517f08c379a00000000000000000000000000000000000000000000000000000000081526004016114979061305e565b60405180910390fd5b80600560008573ffffffffffffffffffffffffffffffffffffffff1673ffffffffffffffffffffffffffffffffffffffff16815260200190815260200160002060008473ffffffffffffffffffffffffffffffffffffffff1673ffffffffffffffffffffffffffffffffffffffff16815260200190815260200160002060006101000a81548160ff0219169083151502179055508173ffffffffffffffffffffffffffffffffffffffff168373ffffffffffffffffffffffffffffffffffffffff167f17307eab39ab6107e8899845ad3d59bd9653f200f220920489ca2b5937696c3183604051611591919061213a565b60405180910390a3505050565b6115a9848484610f84565b6115b58484848461193a565b6115f4576040517f08c379a00000000000000000000000000000000000000000000000000000000081526004016115eb906130f0565b60405180910390fd5b50505050565b606061160582610dd5565b6000600660008481526020019081526020016000208054611625906127b5565b80601f0160208091040260200160405190810160405280929190818152602001828054611651906127b5565b801561169e5780601f106116735761010080835404028352916020019161169e565b820191906000526020600020905b81548152906001019060200180831161168157829003601f168201915b5050505050905060006116af611ac1565b905060008151036116c4578192505050611707565b6000825111156116f95780826040516020016116e192919061314c565b60405160208183030381529060405292505050611707565b61170284611b53565b925050505b919050565b61171582611892565b611754576040517f08c379a000000000000000000000000000000000000000000000000000000000815260040161174b906131e2565b60405180910390fd5b806006600084815260200190815260200160002090816117749190612c20565b507ff8e1a15aba9398e019f0b49df1a4fde98ee17ae345cb5f6b5e2c27f5033e8ce7826040516117a49190612341565b60405180910390a15050565b60007f80ac58cd000000000000000000000000000000000000000000000000000000007bffffffffffffffffffffffffffffffffffffffffffffffffffffffff1916827bffffffffffffffffffffffffffffffffffffffffffffffffffffffff1916148061187b57507f5b5e139f000000000000000000000000000000000000000000000000000000007bffffffffffffffffffffffffffffffffffffffffffffffffffffffff1916827bffffffffffffffffffffffffffffffffffffffffffffffffffffffff1916145b8061188b575061188a82611bbb565b5b9050919050565b60008073ffffffffffffffffffffffffffffffffffffffff166118b48361132f565b73ffffffffffffffffffffffffffffffffffffffff1614159050919050565b50505050565b50505050565b6118e98383611c25565b6118f6600084848461193a565b611935576040517f08c379a000000000000000000000000000000000000000000000000000000000815260040161192c906130f0565b60405180910390fd5b505050565b600061195b8473ffffffffffffffffffffffffffffffffffffffff16611e42565b15611ab4578373ffffffffffffffffffffffffffffffffffffffff1663150b7a02611984610e20565b8786866040518563ffffffff1660e01b81526004016119a69493929190613257565b6020604051808303816000875af19250505080156119e257506040513d601f19601f820116820180604052508101906119df91906132b8565b60015b611a64573d8060008114611a12576040519150601f19603f3d011682016040523d82523d6000602084013e611a17565b606091505b506000815103611a5c576040517f08c379a0000000000000000000000000000000000000000000000000000000008152600401611a53906130f0565b60405180910390fd5b805181602001fd5b63150b7a0260e01b7bffffffffffffffffffffffffffffffffffffffffffffffffffffffff1916817bffffffffffffffffffffffffffffffffffffffffffffffffffffffff191614915050611ab9565b600190505b949350505050565b6060600a8054611ad0906127b5565b80601f0160208091040260200160405190810160405280929190818152602001828054611afc906127b5565b8015611b495780601f10611b1e57610100808354040283529160200191611b49565b820191906000526020600020905b815481529060010190602001808311611b2c57829003601f168201915b5050505050905090565b6060611b5e82610dd5565b6000611b68611ac1565b90506000815111611b885760405180602001604052806000815250611bb3565b80611b9284611e65565b604051602001611ba392919061314c565b6040516020818303038152906040525b915050919050565b60007f01ffc9a7000000000000000000000000000000000000000000000000000000007bffffffffffffffffffffffffffffffffffffffffffffffffffffffff1916827bffffffffffffffffffffffffffffffffffffffffffffffffffffffff1916149050919050565b600073ffffffffffffffffffffffffffffffffffffffff168273ffffffffffffffffffffffffffffffffffffffff1603611c94576040517f08c379a0000000000000000000000000000000000000000000000000000000008152600401611c8b90613331565b60405180910390fd5b611c9d81611892565b15611cdd576040517f08c379a0000000000000000000000000000000000000000000000000000000008152600401611cd49061339d565b60405180910390fd5b611ceb6000838360016118d3565b611cf481611892565b15611d34576040517f08c379a0000000000000000000000000000000000000000000000000000000008152600401611d2b9061339d565b60405180910390fd5b6001600360008473ffffffffffffffffffffffffffffffffffffffff1673ffffffffffffffffffffffffffffffffffffffff16815260200190815260200160002060008282540192505081905550816002600083815260200190815260200160002060006101000a81548173ffffffffffffffffffffffffffffffffffffffff021916908373ffffffffffffffffffffffffffffffffffffffff160217905550808273ffffffffffffffffffffffffffffffffffffffff16600073ffffffffffffffffffffffffffffffffffffffff167fddf252ad1be2c89b69c2b068fc378daa952ba7f163c4a11628f55a4df523b3ef60405160405180910390a4611e3e6000838360016118d9565b5050565b6000808273ffffffffffffffffffffffffffffffffffffffff163b119050919050565b606060006001611e7484611f33565b01905060008167ffffffffffffffff811115611e9357611e926123b9565b5b6040519080825280601f01601f191660200182016040528015611ec55781602001600182028036833780820191505090505b509050600082602001820190505b600115611f28578080600190039150507f3031323334353637383961626364656600000000000000000000000000000000600a86061a8153600a8581611f1c57611f1b6133bd565b5b04945060008503611ed3575b819350505050919050565b600080600090507a184f03e93ff9f4daa797ed6e38ed64bf6a1f0100000000000000008310611f91577a184f03e93ff9f4daa797ed6e38ed64bf6a1f0100000000000000008381611f8757611f866133bd565b5b0492506040810190505b6d04ee2d6d415b85acef81000000008310611fce576d04ee2d6d415b85acef81000000008381611fc457611fc36133bd565b5b0492506020810190505b662386f26fc100008310611ffd57662386f26fc100008381611ff357611ff26133bd565b5b0492506010810190505b6305f5e1008310612026576305f5e100838161201c5761201b6133bd565b5b0492506008810190505b612710831061204b576127108381612041576120406133bd565b5b0492506004810190505b6064831061206e5760648381612064576120636133bd565b5b0492506002810190505b600a831061207d576001810190505b80915050919050565b6000604051905090565b600080fd5b600080fd5b60007fffffffff0000000000000000000000000000000000000000000000000000000082169050919050565b6120cf8161209a565b81146120da57600080fd5b50565b6000813590506120ec816120c6565b92915050565b60006020828403121561210857612107612090565b5b6000612116848285016120dd565b91505092915050565b60008115159050919050565b6121348161211f565b82525050565b600060208201905061214f600083018461212b565b92915050565b600081519050919050565b600082825260208201905092915050565b60005b8381101561218f578082015181840152602081019050612174565b60008484015250505050565b6000601f19601f8301169050919050565b60006121b782612155565b6121c18185612160565b93506121d1818560208601612171565b6121da8161219b565b840191505092915050565b600060208201905081810360008301526121ff81846121ac565b905092915050565b6000819050919050565b61221a81612207565b811461222557600080fd5b50565b60008135905061223781612211565b92915050565b60006020828403121561225357612252612090565b5b600061226184828501612228565b91505092915050565b600073ffffffffffffffffffffffffffffffffffffffff82169050919050565b60006122958261226a565b9050919050565b6122a58161228a565b82525050565b60006020820190506122c0600083018461229c565b92915050565b6122cf8161228a565b81146122da57600080fd5b50565b6000813590506122ec816122c6565b92915050565b6000806040838503121561230957612308612090565b5b6000612317858286016122dd565b925050602061232885828601612228565b9150509250929050565b61233b81612207565b82525050565b60006020820190506123566000830184612332565b92915050565b60008060006060848603121561237557612374612090565b5b6000612383868287016122dd565b9350506020612394868287016122dd565b92505060406123a586828701612228565b9150509250925092565b600080fd5b600080fd5b7f4e487b7100000000000000000000000000000000000000000000000000000000600052604160045260246000fd5b6123f18261219b565b810181811067ffffffffffffffff821117156124105761240f6123b9565b5b80604052505050565b6000612423612086565b905061242f82826123e8565b919050565b600067ffffffffffffffff82111561244f5761244e6123b9565b5b6124588261219b565b9050602081019050919050565b82818337600083830152505050565b600061248761248284612434565b612419565b9050828152602081018484840111156124a3576124a26123b4565b5b6124ae848285612465565b509392505050565b600082601f8301126124cb576124ca6123af565b5b81356124db848260208601612474565b91505092915050565b6000602082840312156124fa576124f9612090565b5b600082013567ffffffffffffffff81111561251857612517612095565b5b612524848285016124b6565b91505092915050565b60006020828403121561254357612542612090565b5b6000612551848285016122dd565b91505092915050565b6125638161211f565b811461256e57600080fd5b50565b6000813590506125808161255a565b92915050565b6000806040838503121561259d5761259c612090565b5b60006125ab858286016122dd565b92505060206125bc85828601612571565b9150509250929050565b600067ffffffffffffffff8211156125e1576125e06123b9565b5b6125ea8261219b565b9050602081019050919050565b600061260a612605846125c6565b612419565b905082815260208101848484011115612626576126256123b4565b5b612631848285612465565b509392505050565b600082601f83011261264e5761264d6123af565b5b813561265e8482602086016125f7565b91505092915050565b6000806000806080858703121561268157612680612090565b5b600061268f878288016122dd565b94505060206126a0878288016122dd565b93505060406126b187828801612228565b925050606085013567ffffffffffffffff8111156126d2576126d1612095565b5b6126de87828801612639565b91505092959194509250565b6000806040838503121561270157612700612090565b5b600061270f858286016122dd565b925050602083013567ffffffffffffffff8111156127305761272f612095565b5b61273c858286016124b6565b9150509250929050565b6000806040838503121561275d5761275c612090565b5b600061276b858286016122dd565b925050602061277c858286016122dd565b9150509250929050565b7f4e487b7100000000000000000000000000000000000000000000000000000000600052602260045260246000fd5b600060028204905060018216806127cd57607f821691505b6020821081036127e0576127df612786565b5b50919050565b7f4552433732313a20617070726f76616c20746f2063757272656e74206f776e6560008201527f7200000000000000000000000000000000000000000000000000000000000000602082015250565b6000612842602183612160565b915061284d826127e6565b604082019050919050565b6000602082019050818103600083015261287181612835565b9050919050565b7f4552433732313a20617070726f76652063616c6c6572206973206e6f7420746f60008201527f6b656e206f776e6572206f7220617070726f76656420666f7220616c6c000000602082015250565b60006128d4603d83612160565b91506128df82612878565b604082019050919050565b60006020820190508181036000830152612903816128c7565b9050919050565b7f4552433732313a2063616c6c6572206973206e6f7420746f6b656e206f776e6560008201527f72206f7220617070726f76656400000000000000000000000000000000000000602082015250565b6000612966602d83612160565b91506129718261290a565b604082019050919050565b6000602082019050818103600083015261299581612959565b9050919050565b7f4d617820737570706c7920726561636865640000000000000000000000000000600082015250565b60006129d2601283612160565b91506129dd8261299c565b602082019050919050565b60006020820190508181036000830152612a01816129c5565b9050919050565b7f496e73756666696369656e74207061796d656e74000000000000000000000000600082015250565b6000612a3e601483612160565b9150612a4982612a08565b602082019050919050565b60006020820190508181036000830152612a6d81612a31565b9050919050565b60008190508160005260206000209050919050565b60006020601f8301049050919050565b600082821b905092915050565b600060088302612ad67fffffffffffffffffffffffffffffffffffffffffffffffffffffffffffffffff82612a99565b612ae08683612a99565b95508019841693508086168417925050509392505050565b6000819050919050565b6000612b1d612b18612b1384612207565b612af8565b612207565b9050919050565b6000819050919050565b612b3783612b02565b612b4b612b4382612b24565b848454612aa6565b825550505050565b600090565b612b60612b53565b612b6b818484612b2e565b505050565b5b81811015612b8f57612b84600082612b58565b600181019050612b71565b5050565b601f821115612bd457612ba581612a74565b612bae84612a89565b81016020851015612bbd578190505b612bd1612bc985612a89565b830182612b70565b50505b505050565b600082821c905092915050565b6000612bf760001984600802612bd9565b1980831691505092915050565b6000612c108383612be6565b9150826002028217905092915050565b612c2982612155565b67ffffffffffffffff811115612c4257612c416123b9565b5b612c4c82546127b5565b612c57828285612b93565b600060209050601f831160018114612c8a5760008415612c78578287015190505b612c828582612c04565b865550612cea565b601f198416612c9886612a74565b60005b82811015612cc057848901518255600182019150602085019450602081019050612c9b565b86831015612cdd5784890151612cd9601f891682612be6565b8355505b6001600288020188555050505b505050505050565b7f4552433732313a20696e76616c696420746f6b656e2049440000000000000000600082015250565b6000612d28601883612160565b9150612d3382612cf2565b602082019050919050565b60006020820190508181036000830152612d5781612d1b565b9050919050565b7f4552433732313a2061646472657373207a65726f206973206e6f74206120766160008201527f6c6964206f776e65720000000000000000000000000000000000000000000000602082015250565b6000612dba602983612160565b9150612dc582612d5e565b604082019050919050565b60006020820190508181036000830152612de981612dad565b9050919050565b7f4f776e61626c653a206e6577206f776e657220697320746865207a65726f206160008201527f6464726573730000000000000000000000000000000000000000000000000000602082015250565b6000612e4c602683612160565b9150612e5782612df0565b604082019050919050565b60006020820190508181036000830152612e7b81612e3f565b9050919050565b7f4552433732313a207472616e736665722066726f6d20696e636f72726563742060008201527f6f776e6572000000000000000000000000000000000000000000000000000000602082015250565b6000612ede602583612160565b9150612ee982612e82565b604082019050919050565b60006020820190508181036000830152612f0d81612ed1565b9050919050565b7f4552433732313a207472616e7366657220746f20746865207a65726f2061646460008201527f7265737300000000000000000000000000000000000000000000000000000000602082015250565b6000612f70602483612160565b9150612f7b82612f14565b604082019050919050565b60006020820190508181036000830152612f9f81612f63565b9050919050565b7f4f776e61626c653a2063616c6c6572206973206e6f7420746865206f776e6572600082015250565b6000612fdc602083612160565b9150612fe782612fa6565b602082019050919050565b6000602082019050818103600083015261300b81612fcf565b9050919050565b7f4552433732313a20617070726f766520746f2063616c6c657200000000000000600082015250565b6000613048601983612160565b915061305382613012565b602082019050919050565b600060208201905081810360008301526130778161303b565b9050919050565b7f4552433732313a207472616e7366657220746f206e6f6e20455243373231526560008201527f63656976657220696d706c656d656e7465720000000000000000000000000000602082015250565b60006130da603283612160565b91506130e58261307e565b604082019050919050565b60006020820190508181036000830152613109816130cd565b9050919050565b600081905092915050565b600061312682612155565b6131308185613110565b9350613140818560208601612171565b80840191505092915050565b6000613158828561311b565b9150613164828461311b565b91508190509392505050565b7f45524337323155524953746f726167653a2055524920736574206f66206e6f6e60008201527f6578697374656e7420746f6b656e000000000000000000000000000000000000602082015250565b60006131cc602e83612160565b91506131d782613170565b604082019050919050565b600060208201905081810360008301526131fb816131bf565b9050919050565b600081519050919050565b600082825260208201905092915050565b600061322982613202565b613233818561320d565b9350613243818560208601612171565b61324c8161219b565b840191505092915050565b600060808201905061326c600083018761229c565b613279602083018661229c565b6132866040830185612332565b8181036060830152613298818461321e565b905095945050505050565b6000815190506132b2816120c6565b92915050565b6000602082840312156132ce576132cd612090565b5b60006132dc848285016132a3565b91505092915050565b7f4552433732313a206d696e7420746f20746865207a65726f2061646472657373600082015250565b600061331b602083612160565b9150613326826132e5565b602082019050919050565b6000602082019050818103600083015261334a8161330e565b9050919050565b7f4552433732313a20746f6b656e20616c7265616479206d696e74656400000000600082015250565b6000613387601c83612160565b915061339282613351565b602082019050919050565b600060208201905081810360008301526133b68161337a565b9050919050565b7f4e487b7100000000000000000000000000000000000000000000000000000000600052601260045260246000fdfea264697066735822122045006bf0aac6c2c18fe3a07c63efc5bb013fca668f010769d940b01a5c32876764736f6c63430008130033",
  "linkReferences": {},
  "deployedLinkReferences": {}
}